{
  "_format": "hh-sol-artifact-1",
  "contractName": "AcceptingDonations",
  "sourceName": "contracts/AcceptingDonations.sol",
  "abi": [
    {
      "inputs": [],
      "stateMutability": "payable",
      "type": "constructor"
    },
    {
      "anonymous": false,
      "inputs": [
        {
          "indexed": false,
          "internalType": "address",
          "name": "_from",
          "type": "address"
        },
        {
          "indexed": false,
          "internalType": "uint256",
          "name": "_amount",
          "type": "uint256"
        }
      ],
      "name": "Paid",
      "type": "event"
    },
    {
      "stateMutability": "nonpayable",
      "type": "fallback"
    },
    {
      "inputs": [
        {
          "internalType": "address",
          "name": "addressFunder",
          "type": "address"
        }
      ],
      "name": "amountOfAccountDonations",
      "outputs": [
        {
          "internalType": "uint256",
          "name": "",
          "type": "uint256"
        }
      ],
      "stateMutability": "view",
      "type": "function"
    },
    {
      "inputs": [
        {
          "internalType": "address",
          "name": "",
          "type": "address"
        }
      ],
      "name": "funders",
      "outputs": [
        {
          "internalType": "address",
          "name": "addr",
          "type": "address"
        },
        {
          "internalType": "uint256",
          "name": "amount",
          "type": "uint256"
        }
      ],
      "stateMutability": "view",
      "type": "function"
    },
    {
      "inputs": [],
      "name": "getAccountsOfDonors",
      "outputs": [
        {
          "internalType": "address[]",
          "name": "",
          "type": "address[]"
        }
      ],
      "stateMutability": "view",
      "type": "function"
    },
    {
      "inputs": [],
      "name": "owner",
      "outputs": [
        {
          "internalType": "address",
          "name": "",
          "type": "address"
        }
      ],
      "stateMutability": "view",
      "type": "function"
    },
    {
      "inputs": [],
      "name": "transfer",
      "outputs": [],
      "stateMutability": "payable",
      "type": "function"
    },
    {
      "inputs": [
        {
          "internalType": "uint256",
          "name": "",
          "type": "uint256"
        }
      ],
      "name": "uniqFunders",
      "outputs": [
        {
          "internalType": "address",
          "name": "",
          "type": "address"
        }
      ],
      "stateMutability": "view",
      "type": "function"
    },
    {
      "inputs": [
        {
          "internalType": "address",
          "name": "addressOutput",
          "type": "address"
        },
        {
          "internalType": "uint256",
          "name": "weis",
          "type": "uint256"
        }
      ],
      "name": "withdraw",
      "outputs": [],
      "stateMutability": "nonpayable",
      "type": "function"
    },
    {
      "stateMutability": "payable",
      "type": "receive"
    }
  ],
  "bytecode": "0x6080604052336000806101000a81548173ffffffffffffffffffffffffffffffffffffffff021916908373ffffffffffffffffffffffffffffffffffffffff160217905550610c6c806100536000396000f3fe6080604052600436106100745760003560e01c8063883ee8cc1161004e578063883ee8cc146103745780638a4068dd146103b15780638da5cb5b146103bb578063f3fef3a3146103e6576102bf565b8063031b3677146102ce5780630d5128f11461030c57806329f7415514610337576102bf565b366102bf576000600160003373ffffffffffffffffffffffffffffffffffffffff1673ffffffffffffffffffffffffffffffffffffffff1681526020019081526020016000206001015414610162576000600160003373ffffffffffffffffffffffffffffffffffffffff1673ffffffffffffffffffffffffffffffffffffffff16815260200190815260200160002060010154905034816101169190610b1e565b600160003373ffffffffffffffffffffffffffffffffffffffff1673ffffffffffffffffffffffffffffffffffffffff1681526020019081526020016000206001018190555050610284565b60405180604001604052803373ffffffffffffffffffffffffffffffffffffffff16815260200134815250600160003373ffffffffffffffffffffffffffffffffffffffff1673ffffffffffffffffffffffffffffffffffffffff16815260200190815260200160002060008201518160000160006101000a81548173ffffffffffffffffffffffffffffffffffffffff021916908373ffffffffffffffffffffffffffffffffffffffff160217905550602082015181600101559050506002339080600181540180825580915050600190039060005260206000200160009091909190916101000a81548173ffffffffffffffffffffffffffffffffffffffff021916908373ffffffffffffffffffffffffffffffffffffffff1602179055505b7f737c69225d647e5994eab1a6c301bf6d9232beb2759ae1e27a8966b4732bc48933346040516102b5929190610a4e565b60405180910390a1005b3480156102cb57600080fd5b50005b3480156102da57600080fd5b506102f560048036038101906102f091906108df565b61040f565b604051610303929190610a4e565b60405180910390f35b34801561031857600080fd5b50610321610453565b60405161032e9190610a77565b60405180910390f35b34801561034357600080fd5b5061035e60048036038101906103599190610944565b6104e1565b60405161036b9190610a33565b60405180910390f35b34801561038057600080fd5b5061039b600480360381019061039691906108df565b610520565b6040516103a89190610ab9565b60405180910390f35b6103b961056c565b005b3480156103c757600080fd5b506103d06107b2565b6040516103dd9190610a33565b60405180910390f35b3480156103f257600080fd5b5061040d60048036038101906104089190610908565b6107d6565b005b60016020528060005260406000206000915090508060000160009054906101000a900473ffffffffffffffffffffffffffffffffffffffff16908060010154905082565b606060028054806020026020016040519081016040528092919081815260200182805480156104d757602002820191906000526020600020905b8160009054906101000a900473ffffffffffffffffffffffffffffffffffffffff1673ffffffffffffffffffffffffffffffffffffffff168152602001906001019080831161048d575b5050505050905090565b600281815481106104f157600080fd5b906000526020600020016000915054906101000a900473ffffffffffffffffffffffffffffffffffffffff1681565b6000600160008373ffffffffffffffffffffffffffffffffffffffff1673ffffffffffffffffffffffffffffffffffffffff168152602001908152602001600020600101549050919050565b6000600160003373ffffffffffffffffffffffffffffffffffffffff1673ffffffffffffffffffffffffffffffffffffffff1681526020019081526020016000206001015414610655576000600160003373ffffffffffffffffffffffffffffffffffffffff1673ffffffffffffffffffffffffffffffffffffffff16815260200190815260200160002060010154905034816106099190610b1e565b600160003373ffffffffffffffffffffffffffffffffffffffff1673ffffffffffffffffffffffffffffffffffffffff1681526020019081526020016000206001018190555050610777565b60405180604001604052803373ffffffffffffffffffffffffffffffffffffffff16815260200134815250600160003373ffffffffffffffffffffffffffffffffffffffff1673ffffffffffffffffffffffffffffffffffffffff16815260200190815260200160002060008201518160000160006101000a81548173ffffffffffffffffffffffffffffffffffffffff021916908373ffffffffffffffffffffffffffffffffffffffff160217905550602082015181600101559050506002339080600181540180825580915050600190039060005260206000200160009091909190916101000a81548173ffffffffffffffffffffffffffffffffffffffff021916908373ffffffffffffffffffffffffffffffffffffffff1602179055505b7f737c69225d647e5994eab1a6c301bf6d9232beb2759ae1e27a8966b4732bc48933346040516107a8929190610a4e565b60405180910390a1565b60008054906101000a900473ffffffffffffffffffffffffffffffffffffffff1681565b60008054906101000a900473ffffffffffffffffffffffffffffffffffffffff1673ffffffffffffffffffffffffffffffffffffffff163373ffffffffffffffffffffffffffffffffffffffff1614610864576040517f08c379a000000000000000000000000000000000000000000000000000000000815260040161085b90610a99565b60405180910390fd5b60008290508073ffffffffffffffffffffffffffffffffffffffff166108fc839081150290604051600060405180830381858888f193505050501580156108af573d6000803e3d6000fd5b50505050565b6000813590506108c481610c08565b92915050565b6000813590506108d981610c1f565b92915050565b6000602082840312156108f157600080fd5b60006108ff848285016108b5565b91505092915050565b6000806040838503121561091b57600080fd5b6000610929858286016108b5565b925050602061093a858286016108ca565b9150509250929050565b60006020828403121561095657600080fd5b6000610964848285016108ca565b91505092915050565b60006109798383610985565b60208301905092915050565b61098e81610b74565b82525050565b61099d81610b74565b82525050565b60006109ae82610ae4565b6109b88185610afc565b93506109c383610ad4565b8060005b838110156109f45781516109db888261096d565b97506109e683610aef565b9250506001810190506109c7565b5085935050505092915050565b6000610a0e601a83610b0d565b9150610a1982610bdf565b602082019050919050565b610a2d81610ba6565b82525050565b6000602082019050610a486000830184610994565b92915050565b6000604082019050610a636000830185610994565b610a706020830184610a24565b9392505050565b60006020820190508181036000830152610a9181846109a3565b905092915050565b60006020820190508181036000830152610ab281610a01565b9050919050565b6000602082019050610ace6000830184610a24565b92915050565b6000819050602082019050919050565b600081519050919050565b6000602082019050919050565b600082825260208201905092915050565b600082825260208201905092915050565b6000610b2982610ba6565b9150610b3483610ba6565b9250827fffffffffffffffffffffffffffffffffffffffffffffffffffffffffffffffff03821115610b6957610b68610bb0565b5b828201905092915050565b6000610b7f82610b86565b9050919050565b600073ffffffffffffffffffffffffffffffffffffffff82169050919050565b6000819050919050565b7f4e487b7100000000000000000000000000000000000000000000000000000000600052601160045260246000fd5b7f596f7572206164647265737320696e206e6f74206f776e65722e000000000000600082015250565b610c1181610b74565b8114610c1c57600080fd5b50565b610c2881610ba6565b8114610c3357600080fd5b5056fea264697066735822122038d845946ed9fc8d41bcec3283ec3792633b7420bf1aff916bbb5c00c5733b4764736f6c63430008040033",
  "linkReferences": {},
  "deployedLinkReferences": {}
}