{
  "_format": "hh-sol-artifact-1",
  "contractName": "AcceptingDonations",
  "sourceName": "contracts/AcceptingDonations.sol",
  "abi": [
    {
      "inputs": [],
      "stateMutability": "payable",
      "type": "constructor"
    },
    {
      "anonymous": false,
      "inputs": [
        {
          "indexed": false,
          "internalType": "address",
          "name": "_from",
          "type": "address"
        },
        {
          "indexed": false,
          "internalType": "uint256",
          "name": "_amount",
          "type": "uint256"
        }
      ],
      "name": "Paid",
      "type": "event"
    },
    {
      "stateMutability": "nonpayable",
      "type": "fallback"
    },
    {
      "inputs": [
        {
          "internalType": "address",
          "name": "addressFunder",
          "type": "address"
        }
      ],
      "name": "amountOfAccountDonations",
      "outputs": [
        {
          "internalType": "uint256",
          "name": "",
          "type": "uint256"
        }
      ],
      "stateMutability": "view",
      "type": "function"
    },
    {
      "inputs": [],
      "name": "currentBalance",
      "outputs": [
        {
          "internalType": "uint256",
          "name": "",
          "type": "uint256"
        }
      ],
      "stateMutability": "view",
      "type": "function"
    },
    {
      "inputs": [
        {
          "internalType": "address",
          "name": "",
          "type": "address"
        }
      ],
      "name": "funders",
      "outputs": [
        {
          "internalType": "address",
          "name": "addr",
          "type": "address"
        },
        {
          "internalType": "uint256",
          "name": "amount",
          "type": "uint256"
        }
      ],
      "stateMutability": "view",
      "type": "function"
    },
    {
      "inputs": [],
      "name": "getAccountsOfDonors",
      "outputs": [
        {
          "internalType": "address[]",
          "name": "",
          "type": "address[]"
        }
      ],
      "stateMutability": "view",
      "type": "function"
    },
    {
      "inputs": [],
      "name": "owner",
      "outputs": [
        {
          "internalType": "address",
          "name": "",
          "type": "address"
        }
      ],
      "stateMutability": "view",
      "type": "function"
    },
    {
      "inputs": [],
      "name": "transfer",
      "outputs": [],
      "stateMutability": "payable",
      "type": "function"
    },
    {
      "inputs": [
        {
          "internalType": "uint256",
          "name": "",
          "type": "uint256"
        }
      ],
      "name": "uniqFunders",
      "outputs": [
        {
          "internalType": "address",
          "name": "",
          "type": "address"
        }
      ],
      "stateMutability": "view",
      "type": "function"
    },
    {
      "inputs": [
        {
          "internalType": "address",
          "name": "addressOutput",
          "type": "address"
        },
        {
          "internalType": "uint256",
          "name": "weis",
          "type": "uint256"
        }
      ],
      "name": "withdraw",
      "outputs": [],
      "stateMutability": "nonpayable",
      "type": "function"
    },
    {
      "stateMutability": "payable",
      "type": "receive"
    }
  ],
  "bytecode": "0x6080604052336000806101000a81548173ffffffffffffffffffffffffffffffffffffffff021916908373ffffffffffffffffffffffffffffffffffffffff160217905550610caa806100536000396000f3fe60806040526004361061007f5760003560e01c80638a4068dd1161004e5780638a4068dd146103bc5780638da5cb5b146103c6578063ce845d1d146103f1578063f3fef3a31461041c576102ca565b8063031b3677146102d95780630d5128f11461031757806329f7415514610342578063883ee8cc1461037f576102ca565b366102ca576000600160003373ffffffffffffffffffffffffffffffffffffffff1673ffffffffffffffffffffffffffffffffffffffff168152602001908152602001600020600101541461016d576000600160003373ffffffffffffffffffffffffffffffffffffffff1673ffffffffffffffffffffffffffffffffffffffff16815260200190815260200160002060010154905034816101219190610b5c565b600160003373ffffffffffffffffffffffffffffffffffffffff1673ffffffffffffffffffffffffffffffffffffffff168152602001908152602001600020600101819055505061028f565b60405180604001604052803373ffffffffffffffffffffffffffffffffffffffff16815260200134815250600160003373ffffffffffffffffffffffffffffffffffffffff1673ffffffffffffffffffffffffffffffffffffffff16815260200190815260200160002060008201518160000160006101000a81548173ffffffffffffffffffffffffffffffffffffffff021916908373ffffffffffffffffffffffffffffffffffffffff160217905550602082015181600101559050506002339080600181540180825580915050600190039060005260206000200160009091909190916101000a81548173ffffffffffffffffffffffffffffffffffffffff021916908373ffffffffffffffffffffffffffffffffffffffff1602179055505b7f737c69225d647e5994eab1a6c301bf6d9232beb2759ae1e27a8966b4732bc48933346040516102c0929190610a8c565b60405180910390a1005b3480156102d657600080fd5b50005b3480156102e557600080fd5b5061030060048036038101906102fb919061091d565b610445565b60405161030e929190610a8c565b60405180910390f35b34801561032357600080fd5b5061032c610489565b6040516103399190610ab5565b60405180910390f35b34801561034e57600080fd5b5061036960048036038101906103649190610982565b610517565b6040516103769190610a71565b60405180910390f35b34801561038b57600080fd5b506103a660048036038101906103a1919061091d565b610556565b6040516103b39190610af7565b60405180910390f35b6103c46105a2565b005b3480156103d257600080fd5b506103db6107e8565b6040516103e89190610a71565b60405180910390f35b3480156103fd57600080fd5b5061040661080c565b6040516104139190610af7565b60405180910390f35b34801561042857600080fd5b50610443600480360381019061043e9190610946565b610814565b005b60016020528060005260406000206000915090508060000160009054906101000a900473ffffffffffffffffffffffffffffffffffffffff16908060010154905082565b6060600280548060200260200160405190810160405280929190818152602001828054801561050d57602002820191906000526020600020905b8160009054906101000a900473ffffffffffffffffffffffffffffffffffffffff1673ffffffffffffffffffffffffffffffffffffffff16815260200190600101908083116104c3575b5050505050905090565b6002818154811061052757600080fd5b906000526020600020016000915054906101000a900473ffffffffffffffffffffffffffffffffffffffff1681565b6000600160008373ffffffffffffffffffffffffffffffffffffffff1673ffffffffffffffffffffffffffffffffffffffff168152602001908152602001600020600101549050919050565b6000600160003373ffffffffffffffffffffffffffffffffffffffff1673ffffffffffffffffffffffffffffffffffffffff168152602001908152602001600020600101541461068b576000600160003373ffffffffffffffffffffffffffffffffffffffff1673ffffffffffffffffffffffffffffffffffffffff168152602001908152602001600020600101549050348161063f9190610b5c565b600160003373ffffffffffffffffffffffffffffffffffffffff1673ffffffffffffffffffffffffffffffffffffffff16815260200190815260200160002060010181905550506107ad565b60405180604001604052803373ffffffffffffffffffffffffffffffffffffffff16815260200134815250600160003373ffffffffffffffffffffffffffffffffffffffff1673ffffffffffffffffffffffffffffffffffffffff16815260200190815260200160002060008201518160000160006101000a81548173ffffffffffffffffffffffffffffffffffffffff021916908373ffffffffffffffffffffffffffffffffffffffff160217905550602082015181600101559050506002339080600181540180825580915050600190039060005260206000200160009091909190916101000a81548173ffffffffffffffffffffffffffffffffffffffff021916908373ffffffffffffffffffffffffffffffffffffffff1602179055505b7f737c69225d647e5994eab1a6c301bf6d9232beb2759ae1e27a8966b4732bc48933346040516107de929190610a8c565b60405180910390a1565b60008054906101000a900473ffffffffffffffffffffffffffffffffffffffff1681565b600047905090565b60008054906101000a900473ffffffffffffffffffffffffffffffffffffffff1673ffffffffffffffffffffffffffffffffffffffff163373ffffffffffffffffffffffffffffffffffffffff16146108a2576040517f08c379a000000000000000000000000000000000000000000000000000000000815260040161089990610ad7565b60405180910390fd5b60008290508073ffffffffffffffffffffffffffffffffffffffff166108fc839081150290604051600060405180830381858888f193505050501580156108ed573d6000803e3d6000fd5b50505050565b60008135905061090281610c46565b92915050565b60008135905061091781610c5d565b92915050565b60006020828403121561092f57600080fd5b600061093d848285016108f3565b91505092915050565b6000806040838503121561095957600080fd5b6000610967858286016108f3565b925050602061097885828601610908565b9150509250929050565b60006020828403121561099457600080fd5b60006109a284828501610908565b91505092915050565b60006109b783836109c3565b60208301905092915050565b6109cc81610bb2565b82525050565b6109db81610bb2565b82525050565b60006109ec82610b22565b6109f68185610b3a565b9350610a0183610b12565b8060005b83811015610a32578151610a1988826109ab565b9750610a2483610b2d565b925050600181019050610a05565b5085935050505092915050565b6000610a4c601a83610b4b565b9150610a5782610c1d565b602082019050919050565b610a6b81610be4565b82525050565b6000602082019050610a8660008301846109d2565b92915050565b6000604082019050610aa160008301856109d2565b610aae6020830184610a62565b9392505050565b60006020820190508181036000830152610acf81846109e1565b905092915050565b60006020820190508181036000830152610af081610a3f565b9050919050565b6000602082019050610b0c6000830184610a62565b92915050565b6000819050602082019050919050565b600081519050919050565b6000602082019050919050565b600082825260208201905092915050565b600082825260208201905092915050565b6000610b6782610be4565b9150610b7283610be4565b9250827fffffffffffffffffffffffffffffffffffffffffffffffffffffffffffffffff03821115610ba757610ba6610bee565b5b828201905092915050565b6000610bbd82610bc4565b9050919050565b600073ffffffffffffffffffffffffffffffffffffffff82169050919050565b6000819050919050565b7f4e487b7100000000000000000000000000000000000000000000000000000000600052601160045260246000fd5b7f596f7572206164647265737320696e206e6f74206f776e65722e000000000000600082015250565b610c4f81610bb2565b8114610c5a57600080fd5b50565b610c6681610be4565b8114610c7157600080fd5b5056fea26469706673582212209e9939298ff0bc301ae9e9ff3c73591791c8351019d3add33ec721d33ac5a80d64736f6c63430008040033",
  "linkReferences": {},
  "deployedLinkReferences": {}
}